:03000000020B9F51
:0C0B9F00787FE4F6D8FD75811002080094
:1009F40020564F54494E47204D414348494E4500E7
:100A0400413A0020423A0020433A00204361737483
:100A140020596F757220566F746521200020466935
:100A24006E616C20526573756C743A00204E6F20B1
:100A3400566F746573204361737420200057696E88
:100A44006E65723A20412020202020200057696ED4
:100A54006E65723A20422020202020200057696EC3
:100A64006E65723A204320202020202000546965BE
:100A74003A2041202620422020202020005469656D
:100A84003A2041202620432020202020005469655C
:100A94003A2042202620432020202020005469654B
:100AA4003A20416C6C2054687265652000205379AB
:0E0AB4007374656D2052657365742E2E2E00CE
:060B3000D2B67F017E0039
:100B3600E4FDFCC3ED9FEC9E5015E4FBFA0BBB00F5
:0F0B4600010AEB647D4A70F50DBD00010C80E4DF
:010B5500227D
:0A0BAB008FA0C2B5120B30C2B622B3
:0A0BB5008FA0D2B5120B30C2B62299
:100B56008B0E8A0F8910AB0EAA0FA910120AC2605B
:100B6600130510E5107002050F14F9120AC2FF12E0
:050B76000BB580E22236
:100B7B008E0E8F0F7C007D0A120ADBEF2430FF12E2
:100B8B000BB5AE0EAF0F7C007D0A120ADBED2430E5
:040B9B00FF020BB595
:10080000E4F508F509F50AF50BF50CF50D7F38123E
:100810000BAB7F0C120BAB7F01120BAB7BFF7A098A
:1008200079F4120B567FC87E00120B367F80120BB4
:10083000AB7BFF7A0A7904120B56AF09AE08120B94
:100840007B7BFF7A0A7907120B56AF0BAE0A120BAD
:100850007B7BFF7A0A790B120B56AF0DAE0C120B95
:100860007B7FC0120BAB7BFF7A0A790F120B5620ED
:1008700090190509E50970020508D39463E5089409
:10088000004005E4F508F5093090FD209119050BAD
:10089000E50B7002050AD39463E50A94004005E471
:1008A000F50AF50B3091FD209219050DE50D70024A
:1008B000050CD39463E50C94004005E4F50CF50DAC
:1008C0003092FD3093030209C17F01120BAB7BFF15
:1008D0007A0A7921120B567FC0120BABE509450845
:1008E0007015E50B450A700FE50D450C70097BFF8F
:1008F0007A0A79300209AFD3E509950BE508950A24
:100900004014D3E509950DE508950C40097BFF7A65
:100910000A79410209AFD3E50B9509E50A9508402C
:1009200013D3E50B950DE50A950C40087BFF7A0A79
:100930007951807BD3E50D9509E50C95084013D3DB
:10094000E50D950BE50C950A40087BFF7A0A796165
:10095000805DE509B50B18E508B50A13D3E50995DF
:100960000DE508950C40087BFF7A0A79718040E517
:1009700009B50D18E508B50C13D3E509950BE50885
:10098000950A40087BFF7A0A79818023E50BB50D33
:1009900018E50AB50C13D3E50B9509E50A9508404F
:1009A000087BFF7A0A799180067BFF7A0A79A11287
:1009B0000B567FD07E07120B363093FD7F01120B52
:1009C000AB30940302082CE4F508F509F50AF50BA1
:1009D000F50CF50D7F01120BAB7BFF7A0A79B11292
:1009E0000B567FF47E01120B363094FD7F01120B03
:0409F000AB02082C22
:100AC200BB010689828A83E0225002E722BBFE0232
:090AD200E32289828A83E4932265
:100ADB00BC000BBE0029EF8DF084FFADF022E4CCFF
:100AEB00F875F008EF2FFFEE33FEEC33FCEE9DECC8
:100AFB00984005FCEE9DFE0FD5F0E9E4CEFD22ED0E
:100B0B00F8F5F0EE8420D21CFEADF075F008EF2F57
:100B1B00FFED33FD4007985006D5F0F222C398FD48
:050B2B000FD5F0EA22E5
:00000001FF
